:1000000000308A009A280000FF00030E8301A1003F
:100010000A08A0008A010408A2007708A300780853
:10002000A4007908A5007A08A600831383128B1D0B
:100030001B280B182C28220884002308F70024080A
:10004000F8002508F9002608FA0020088A00210E89
:100050008300FF0E7F0E09008A110A1243282930FF
:10006000840083130008031942280630F800F701C2
:10007000F70B3828F80B37287B30F700F70B3E28B2
:10008000800B35280800831606168312061E6C287E
:100090000130A700831606168312061E532801306E
:1000A000A9002F204A28270B6C288816831688124F
:1000B000831208138316081386168312861E6B2874
:1000C000A7016C28831686168312861A6B280130C6
:1000D000A9002F2062285328831686168312861EB5
:1000E00095280130A800831686168312861E7C2868
:1000F0000130A9002F207328280B95288812831619
:100100008812831208178316081306168312061A1C
:100110009428A8019528831606168312061E942893
:100120000130A9002F208B287C2843280B108A112E
:100130000A121B2803081F398300A701A801831690
:100140001F149F141F159F1107309C0083138801F3
:0E015000831288010B108B15C0308B046300E6
:02400E00323F3F
:00000001FF
;PIC16F877A
;CRC=92FC  CREATED="25-Oct-17 12:50"
