:1000000000308A009A280000FF00030E8301A1003F
:100010000A08A0008A010408A2007708A300780853
:10002000A4007908A5007A08A600831383128B1D0B
:100030001B280B182C28220884002308F70024080A
:10004000F8002508F9002608FA0020088A00210E89
:100050008300FF0E7F0E09008A110A1243282F30F9
:10006000840083130008031942280630F800F701C2
:10007000F70B3828F80B37287B30F700F70B3E28B2
:10008000800B35280800831606168312061E6C287E
:100090000130AB00831606168312061E532801306A
:1000A000AF002F204A282B0B6C2888168316881245
:1000B000831208138316081386168312861E6B2874
:1000C000AB016C28831686168312861A6B280130C2
:1000D000AF002F2062285328831686168312861EAF
:1000E00095280130AC00831686168312861E7C2864
:1000F0000130AF002F2073282C0B9528881283160F
:100100008812831208178316081306168312061A1C
:100110009428AC019528831606168312061E94288F
:100120000130AF002F208B287C2843280B108A1128
:100130000A121B2803081F398300AB01AC01AD0173
:10014000AE0183161F149F141F159F1107309C00CA
:1001500083137E308312A700BD30A800DB30A900D6
:10016000E730AA0083168801831288010B108B15D3
:06017000C0308B046300A7
:02400E00323F3F
:00000001FF
;PIC16F877A
;CRC=86CB  CREATED="23-Oct-17 16:19"
